:0400000095EF0AF07E
:10080000002073656C6563742061206F7220620044
:100810004C45445F4F4646004C45445F4F4E0000F8
:100820002B50800B346E2B502B24366E2AAE1BEFD0
:1008300004F01DEF04F01EEF04F036803650D8B4FB
:1008400024EF04F026EF04F03BEF04F03628D8A4A0
:100850002CEF04F02EEF04F036EF04F0000E286EBB
:10086000000E296E000E2A6E000E2B6E2A8E000ED0
:100870002B6E43EF04F0000E286E000E296E000E62
:100880002A6E000E2B6E2F50800B356E34503518AB
:10089000D8B44DEF04F04FEF04F050EF04F0348C77
:1008A0002F502F24356E2EAE58EF04F05AEF04F07F
:1008B0005BEF04F035803550D8B461EF04F063EF9E
:1008C00004F078EF04F03528D8A469EF04F06BEF5A
:1008D00004F073EF04F0000E2C6E000E2D6E000E6F
:1008E0002E6E000E2F6E2E8E000E2F6E80EF04F0F7
:1008F000000E2C6E000E2D6E000E2E6E000E2F6E52
:100900003650355CD8B087EF04F089EF04F0B0EFD3
:1009100004F034AC8EEF04F090EF04F092EF04F0AA
:10092000800E341A36C037F035C036F037C035F097
:1009300028C037F02CC028F037C02CF029C037F081
:100940002DC029F037C02DF02AC037F02EC02AF074
:1009500037C02EF02BC037F02FC02BF037C02FF050
:10096000000E376E365035C030F0316A305E000E02
:10097000315A31BEC5EF04F0315009E11A0E305C36
:10098000D8A0C5EF04F0C7EF04F0FEEF04F0285044
:1009900029102A102B10D8A4D0EF04F0D3EF04F0C4
:1009A000010ED4EF04F0000E376E000E286E000E1C
:1009B000296E000E2A6E000E2B6E35C036F007EF42
:1009C00005F037A0E6EF04F0E8EF04F0EEEF04F0F6
:1009D000D89037300109376EF0EF04F0D8903732F5
:1009E00028A0F5EF04F0F7EF04F0F8EF04F0378EED
:1009F0002B342B322A3229322832362A3550365CB3
:100A0000D8A005EF05F007EF05F0E1EF04F034BCE6
:100A10000CEF05F00EEF05F04EEF05F03650D8A4C0
:100A200014EF05F016EF05F020EF05F0000E286E2C
:100A3000000E296E000E2A6E000E2B6E6FEF06F070
:100A40002C5028262D5029222E502A222F502B227E
:100A50002BA02DEF05F02FEF05F0DBEF05F037A011
:100A600034EF05F036EF05F03CEF05F0D890373065
:100A70000109376E3EEF05F0D890373228A043EFDA
:100A800005F045EF05F046EF05F0378E2B342B329D
:100A90002A3229322832362ADBEF05F02C50285C26
:100AA0002D5029582E502A582B50800A306E2F5026
:100AB000800A3058D8B05FEF05F061EF05F08CEF99
:100AC00005F028502C5C306E29502D58316E2A507C
:100AD0002E58326E2B502F58336EFF0E3024286E56
:100AE000FF0E3120296EFF0E32202A6EFF0E3320BA
:100AF0002B6E800E341A376C3750D8A482EF05F075
:100B000084EF05F094EF05F0010E2826000E29224F
:100B10002A222B2294EF05F02C50285E2D50295AC2
:100B20002E502A5A2F502B5A285029102A102B1099
:100B3000D8A49DEF05F09FEF05F0D4EF05F03750F6
:100B4000D8A4A5EF05F0A7EF05F0D4EF05F0000E4F
:100B5000286E000E296E000E2A6E000E2B6E6FEFAF
:100B600006F0D890283629362A362B3637AEBBEF1A
:100B700005F0BDEF05F0BEEF05F0288037A0C3EF0C
:100B800005F0C5EF05F0C9EF05F0D8803736CBEF9B
:100B900005F0D89037363650D8B4D1EF05F0D3EF02
:100BA00005F0D4EF05F036062AAED9EF05F0DBEFFD
:100BB00005F0B1EF05F0000E356E37AEE2EF05F04F
:100BC000E4EF05F0FCEF05F037C030F07F0E301693
:100BD000D8B4EDEF05F0EFEF05F0F3EF05F0010EFF
:100BE000356EFCEF05F028A0F8EF05F0FAEF05F000
:100BF000FCEF05F0EFEF05F03550D8B402EF06F04A
:100C000004EF06F02FEF06F0010E2826000E292231
:100C10002A222B222BA00FEF06F011EF06F02FEF68
:100C200006F028C030F029C031F02AC032F02BC0C5
:100C300033F03334333232323132303230C028F094
:100C400031C029F032C02AF033C02BF03628D8B496
:100C50002CEF06F02EEF06F02FEF06F0362A36289E
:100C6000D8B435EF06F037EF06F03FEF06F0365018
:100C7000D8A43DEF06F03FEF06F051EF06F0000E6E
:100C8000286E000E296E000E2A6E000E2B6E365056
:100C9000D8A44DEF06F04FEF06F051EF06F0000E2E
:100CA000346E36A056EF06F058EF06F05BEF06F014
:100CB0002A8E5CEF06F02A9ED89036302B6E34AE2A
:100CC00064EF06F066EF06F067EF06F02B8E28C0A3
:100CD00028F029C029F02AC02AF02BC02BF01200DE
:100CE0001250800B1F6E12501224266E11AE7BEF35
:100CF00006F07DEF06F07EEF06F026802650D8B491
:100D000084EF06F086EF06F09BEF06F02628D8A4C5
:100D10008CEF06F08EEF06F096EF06F0000E0F6EE9
:100D2000000E106E000E116E000E126E118E000E6F
:100D3000126EA3EF06F0000E0F6E000E106E000E86
:100D4000116E000E126E1650800B1F1A16501624CC
:100D5000276E15AEAEEF06F0B0EF06F0B1EF06F07D
:100D600027802750D8B4B7EF06F0B9EF06F0CEEFE2
:100D700006F02728D8A4BFEF06F0C1EF06F0C9EFB0
:100D800006F0000E136E000E146E000E156E000EAF
:100D9000166E158E000E166ED6EF06F0000E136E50
:100DA000000E146E000E156E000E166E1350141009
:100DB00015101610D8A4DFEF06F0E1EF06F0F9EFFA
:100DC00006F0000E0F6E000E106E000E116E000E7B
:100DD000126E800E11127F0E12121F5012120FC0CF
:100DE0000FF010C010F011C011F012C012F03CEF63
:100DF00008F02650D8A4FFEF06F001EF07F00BEF44
:100E000007F0000E0F6E000E106E000E116E000E39
:100E1000126E3CEF08F0275026C017F0186A175ED4
:100E2000000E185A7F0E1724206E000E1820216E17
:100E30000FC01BF010C01CF011C01DF012C01EF03E
:100E4000000E0F6E000E106E000E116E000E126E70
:100E5000000E226E000E236E000E246E000E256E14
:100E6000000E276E6CEF07F02750D8B43AEF07F06A
:100E70003CEF07F053EF07F0D8901B361C361D36B9
:100E80001E36D8900F3610361136123625AE4BEF7F
:100E900007F04DEF07F04EEF07F00F80D8902236A5
:100EA00023362436253613501B5C14501C5815501D
:100EB0001D5816501E58D8A060EF07F062EF07F0DB
:100EC0006BEF07F0258C13501B5E14501C5A155005
:100ED0001D5A16501E5A272A190E276472EF07F062
:100EE00074EF07F034EF07F01B501C101D101E109C
:100EF000D8B47DEF07F07FEF07F097EF07F022807F
:100F000097EF07F0D8900F3610361136123625AE0F
:100F10008CEF07F08EEF07F08FEF07F00F80D8907F
:100F200022362336243625362006D8A0210611AED7
:100F30009CEF07F09EEF07F082EF07F0000E276EA0
:100F400025AEA5EF07F0A7EF07F0CBEF07F0FF0EF8
:100F50002214176EFF0E2314186EFF0E2414196E40
:100F60007F0E25141A6E1750181019101A10D8B4C5
:100F7000BCEF07F0BEEF07F0C2EF07F0010E276EDF
:100F8000CBEF07F00FA0C7EF07F0C9EF07F0CBEFEB
:100F900007F0BEEF07F02750D8B4D1EF07F0D3EF3A
:100FA00007F0F7EF07F0010E0F26000E10221122B6
:100FB000122212A0DEEF07F0E0EF07F0F7EF07F0E4
:100FC0000FC017F010C018F011C019F012C01AF0BD
:100FD0001A341A3219321832173217C00FF018C0EB
:100FE00010F019C011F01AC012F0204A212A21BEB7
:100FF00002EF08F0215008E12028D8A002EF08F005
:1010000004EF08F00FEF08F0000E216E2068000ECC
:101010000F6E000E106E000E116E000E126E21BECD
:101020001CEF08F0215006E12004D8B01AEF08F0B8
:101030001CEF08F02AEF08F0000E216E000E206E63
:10104000000E0F6E000E106E000E116E000E126E6E
:10105000000E1F6E20C026F026A031EF08F033EFFF
:1010600008F036EF08F0118E37EF08F0119ED89097
:101070002630126EEDEF06F01200096E0950D8B45A
:1010800044EF08F046EF08F068EF08F004BE4DEFBB
:1010900008F04BEF08F068EF08F001C005F002C05F
:1010A00006F003C007F004C008F0051E061E071E68
:1010B000081E052A000E06220722082205C00BF092
:1010C00006C00CF007C00DF008C00EF070EF08F07D
:1010D00001C00BF002C00CF003C00DF004C00EF014
:1010E0000150021003100410D8A479EF08F07BEF30
:1010F00008F085EF08F0000E016E000E026E000E83
:10110000036E000E046E16EF09F0960E0A6E8FEF56
:1011100008F00A2AD8900E320D320C320B32000E33
:101120000B14056E000E0C14066E000E0D14076EE7
:10113000FE0E0E14086E0550061007100810D8A4F5
:10114000A4EF08F0A6EF08F089EF08F0B4EF08F07C
:101150000A2A010E0B26000E0C220D220E22D89018
:101160000E320D320C320B32000E0B14056E000ED7
:101170000C14066E000E0D14076EFF0E0E14086E92
:101180000550061007100810D8A4C9EF08F0CBEFDF
:1011900008F0A8EF08F0D3EF08F00A06D8900B3655
:1011A0000C360D360E360DBED8EF08F0DAEF08F02B
:1011B000E2EF08F0020E0A60E0EF08F0E2EF08F05C
:1011C000CDEF08F00AB0E7EF08F0E9EF08F0EAEF3A
:1011D00008F00D9ED8900A320AC005F0066A076A28
:1011E000086A05C008F0076A066A056A05500B120E
:1011F00006500C1207500D1208500E120950D8B4A8
:1012000004EF09F006EF09F00EEF09F004BE0DEF50
:1012100009F00BEF09F00EEF09F00E8E0BC001F094
:101220000CC002F00DC003F00EC004F01200033435
:1012300004340A6E0A50D8A420EF09F022EF09F016
:101240002CEF09F0000E016E000E026E000E036E10
:10125000000E046E99EF09F001C005F002C006F01F
:1012600003C007F004C008F0200E3CEF09F0D8904E
:101270000832073206320532E82E37EF09F0055002
:10128000096E038EFF0E0116FF0E0216FF0E0316E7
:10129000000E0416960E0A5E0ABE53EF09F051EFD7
:1012A00009F069EF09F00A50800A970FD8B05BEF98
:1012B00009F05DEF09F05FEF09F022EF09F0D89037
:1012C00004320332023201320A3E5FEF09F081EF4D
:1012D00009F01F0E0A646FEF09F071EF09F079EF62
:1012E00009F022EF09F0D8900136023603360436B1
:1012F0000A060A50D8A47FEF09F081EF09F073EFD6
:1013000009F00950D8B487EF09F089EF09F091EF9F
:1013100009F0041E031E021E016C000E02220322AD
:10132000042201C001F002C002F003C003F004C0B7
:1013300004F01200720ED36E000E956E800E386EA1
:10134000250E396E000E3A6E000E3B6EF7EC09F07A
:10135000000E026E320E016E41EC0AF08CEC0AF0C7
:10136000406E420E4018D8B4B8EF09F0BAEF09F059
:10137000C3EF09F0620E4018D8A4C1EF09F0C3EF23
:1013800009F0CCEF09F08C80180E026E080E036E87
:1013900066EC0AF0EDEF09F0410E4018D8B4D3EF37
:1013A00009F0D5EF09F0DEEF09F0610E4018D8A47E
:1013B000DCEF09F0DEEF09F0E7EF09F08C90100E9A
:1013C000026E080E036E66EC0AF0EDEF09F0010EF6
:1013D000026E080E036E66EC0AF0000E026E640EDA
:1013E000016E41EC0AF0AEEF09F000EF00F0949CC2
:1013F000948E38C001F039C002F03AC003F03BC00F
:1014000004F0010E3DEC08F001C013F002C014F02E
:1014100003C015F004C016F0000E0F6E240E106EFF
:10142000F40E116E470E126E70EC06F00FC028F02D
:1014300010C029F011C02AF012C02BF0000E2C6E43
:10144000000E2D6E800E2E6EBF0E2F6E10EC04F06F
:1014500028C03CF029C03DF02AC03EF02BC03FF030
:101460003CC001F03DC002F03EC003F03FC004F0BC
:1014700017EC09F00150AF6E200EAC6E900EAB6E03
:101480001200000E046E000E036E5AEF0AF0000EFA
:10149000066E000E056E054A062A065009E1510E39
:1014A000055CD8A056EF0AF058EF0AF04BEF0AF0AF
:1014B000034A042A0350015C04500258D8B063EF79
:1014C0000AF065EF0AF047EF0AF0120072EF0AF037
:1014D00002C0F6FF03C0F7FF0800F55081EC0AF0E8
:1014E000024A032A02C0F6FF03C0F7FF0800F550C6
:1014F0000009D8A47EEF0AF080EF0AF068EF0AF046
:101500001200016E9EA887EF0AF089EF0AF082EFC1
:101510000AF001C0ADFF12009EAA91EF0AF093EF0E
:101520000AF08CEF0AF0AE501200000EF86E080EB2
:08153000F76E00019AEF09F0CB
:020000040020DA
:08000000FFFFFFFFFFFFFFFF00
:020000040030CA
:0E00000000091F1EFF0181FF0FC00FE00F401F
:00000001FF
