:0400000083EF12F088
:100800000000803F00204100C842007A44401C465E
:1008100050C34724744997184BBCBE4C6B6E4E03B3
:10082000155079AD60F3497100803FCDCC3DD723A1
:100830003C12833AB7D138C62737388635C0D6330D
:10084000CC2B32708930E7DB2EE53C1E42A20D0135
:100850000000000A00000064000000E8030000102F
:10086000270000A086010040420F008096980000FB
:10087000E1F50500CA9A3B202048756D652E2025BC
:10088000322E326600202054656D702E2025322EC7
:100890003266006572726F720000480E0001636F6D
:1008A000000E646F66EF08F0250E7819D8B405D0F5
:1008B00078519AEC12F066EF08F0000E6C6F000EA3
:1008C0006B6F000E6A6F000E696F46C0F6FF47C07F
:1008D000F7FF0800F55068EC12F0D8A034D0000EF5
:1008E00000016C6F000E6B6F6BC00DF06CC00EF0F2
:1008F000000E106E0A0E0F6E31EC12F00DC06BF090
:100900000EC06CF0D00E4B6EFF0E4C6E46C0F6FF64
:1009100047C0F7FF0800F5504D6E4E6A4B504D260C
:100920004C504E224D5000016B274E506C23464ACE
:10093000472A46C0F6FF47C0F7FF0800F55068ECAD
:1009400012F0D8B0D1D746C0F6FF47C0F7FF080075
:10095000F5502E0AD8A439D000016A8D464A472A9C
:10096000000E776F000E766F25D076C00DF077C041
:100970000EF0000E106E0A0E0F6E31EC12F00DC06C
:1009800076F00EC077F0D00E4B6EFF0E4C6E46C068
:10099000F6FF47C0F7FF0800F5504D6E4E6A4B500A
:1009A0004D264C504E224D50000176274E50772355
:1009B000464A472A46C0F6FF47C0F7FF0800F550F1
:1009C00068EC12F0D8A00AD0D0D7000E0001776FE3
:1009D000000E766F6A8902D06A8512D046C0F6FF93
:1009E00047C0F7FF464A472A0800F5CF78F00001D4
:1009F0007851000AD8B41200660AD8B4EDD766D38D
:100A0000070E6A15D8B4DED26AA904D0000E776F3B
:100A1000060E766F63C0D9FF64C0DAFFDECF73F0D5
:100A2000DECF74F0DDCF75F0030E6327000E642374
:100A300075AF11D073C001F074C002F075C003F03F
:100A400044EC12F001C073F002C074F003C075F002
:100A5000030E00016913000E726F000E716F735167
:100A600074117511D8B486D0820E4B6EFF0E4C6E89
:100A700073C04DF074C04EF075C04FF076C050F0AA
:100A8000100E05D0D89050324F324E324D32E82EF3
:100A9000F9D74D504B24716F000E4C20726F7107C7
:100AA000D8A0720771C00DF072C00EF0000E106E6B
:100AB000030E0F6E31EC12F00DC071F00EC072F02B
:100AC00071C007F072C008F0000E0A6E0A0E096EBF
:100AD000F1EC0FF007C071F008C072F0000172AFC6
:100AE00003D07107D8A072077151000875EC08F0A7
:100AF0002AC06DF02BC06EF02CC06FF06DC01BF0E3
:100B00006EC01CF06FC01DF073C01EF074C01FF0EB
:100B100075C020F0FEEC0DF01BC06DF01CC06EF037
:100B20001DC06FF06DC001F06EC002F06FC003F029
:100B3000000E046E800E056E3F0E066E74EC10F013
:100B4000D8B005D000017107D8A0720713D06DC0CE
:100B500001F06EC002F06FC003F0000E046E200EB4
:100B6000056E410E066E74EC10F0D8A003D00001A3
:100B7000714B722B000177BF06D077511BE10D0E30
:100B8000765DD8B017D073C034F074C035F075C03E
:100B900036F0765129EC0AF02AC037F02BC038F035
:100BA0002CC039F031EC0CF034C073F035C074F067
:100BB00036C075F0000172BF06D0725120E10A0EF6
:100BC000715DD8B01CD0735174117511D8B456D062
:100BD00073C031F074C032F075C033F0EBEC0EF03E
:100BE0003150321033103410D8A448D0000172BFF5
:100BF00045D0725104E1020E715DD8A03FD06DC0A6
:100C000001F06EC002F06FC003F0700E046E890E2A
:100C1000056E400E066E74EC10F0D8B003D00001E3
:100C2000F70E02D00001F80E7127FF0E72237151EA
:100C300075EC08F02AC06DF02BC06EF02CC06FF080
:100C400073C001F074C002F075C003F06DC004F011
:100C50006EC005F06FC006F005EC0DF001C065F048
:100C600002C066F003C067F004C068F0000E000127
:100C7000736F000E746F000E756F33D073C031F058
:100C800074C032F075C033F0EBEC0EF031C065F09B
:100C900032C066F033C067F034C068F073C040F013
:100CA00074C041F075C042F065C009F066C00AF03A
:100CB00067C00BF068C00CF050EC11F009C043F0B5
:100CC0000AC044F00BC045F0F1EC11F040C073F0E5
:100CD00041C074F042C075F0000E0001726F000E4A
:100CE000716F010E786F7851040D4F0EF324F66E7C
:100CF000080EF420F76E0900F550655D0900F55007
:100D000066590900F55067590900F5506859D8A08F
:100D100005D0782B0A0E7819D8A4E5D77851762516
:100D20004B6E000E77214C6E71514B2672514C2246
:100D30004B506B5F4C506C5B76517711D8B403D03D
:100D40006B07D8A06C07030E69154B6E000E6A1571
:100D50004C6E4B504C10D8B409D000016B07D8A092
:100D60006C0704D0200E9AEC12F0F7D76CBF05D0B8
:100D70006C51F8E16B05D8B0F5D7030E69154B6ED1
:100D8000000E6A154C6E4B504C10D8B449D02D0E45
:100D90009AEC12F045D065C001F066C002F067C061
:100DA00003F068C004F07851040D4F0EF324F66E82
:100DB000080EF420F76E0900F5CF05F00900F5CF15
:100DC00006F00900F5CF07F00A00F5CF08F033EC84
:100DD00010F001C06DF002C06EF003C06FF004C0EF
:100DE00070F06DC001F06EC002F06FC003F070C013
:100DF00004F00A0E056E000E066E000E076E000E61
:100E0000086E1DEC11F001C06DF002C06EF003C061
:100E10006FF004C070F000016D51300F9AEC12F0C9
:100E2000000178077829D8B408D0B5D7300E9AECED
:100E300012F000017107D8A0720772BF05D072517D
:100E4000F5E17105D8B0F2D777BF09D0775104E149
:100E5000090E765DD8A003D0080E786F02D076C058
:100E600078F07851765F000E775B7851D8B403D074
:100E70002E0E9AEC12F00001785175EC08F02AC0A1
:100E800060F02BC061F02CC062F073C01EF074C023
:100E90001FF075C020F060C01BF061C01CF062C084
:100EA0001DF0FEEC0DF01BC031F01CC032F01DC077
:100EB00033F0EBEC0EF031C065F032C066F033C0B9
:100EC00067F034C068F06CD065C001F066C002F015
:100ED00067C003F068C004F07851040D4F0EF3248E
:100EE000F66E080EF420F76E0900F5CF05F0090044
:100EF000F5CF06F00900F5CF07F00A00F5CF08F0AE
:100F000033EC10F001C06DF002C06EF003C06FF062
:100F100004C070F06DC001F06EC002F06FC003F04D
:100F200070C004F00A0E056E000E066E000E076E0D
:100F3000000E086E1DEC11F001C06DF002C06EF0E5
:100F400003C06FF004C070F000016D51300F9AECD7
:100F500012F065C001F066C002F067C003F068C01F
:100F600004F000017851040D4F0EF324F66E080EC4
:100F7000F420F76E0900F5CF05F00900F5CF06F073
:100F80000900F5CF07F00A00F5CF08F01DEC11F0CD
:100F900001C065F002C066F003C067F004C068F0ED
:100FA000000178077829D8B408D08ED7300E9AEC93
:100FB00012F000017607D8A0770776517711D8B4E0
:100FC00085D0F4D776517711D8A408D06551661131
:100FD00067116811D8A402D0764B772B78514B6EED
:100FE0004C6A76514B5C4C50800A4D6E7751800AAA
:100FF0004D58D8B003D076C078F010D078514B6EF1
:101000004C6A4B50765D7751800A4D6E4C50800A89
:101010004D58D8B003D078C076F0776B6B516C1117
:10102000D8B40DD0030E69154B6E000E6A154C6EC8
:101030004B504C10D8B403D06B07D8A06C076AADE6
:1010400013D06B51765D7751800A4B6E6C51800ADC
:101050004B58D8B005D076516B5F77516C5B04D09C
:10106000000E6C6F000E6B6F78514B6E4C6A6B51BB
:101070004B5C4C50800A4D6E6C51800A4D58D8B074
:1010800005D078516B5F000E6C5B04D0000E6C6F66
:10109000000E6B6F6B516C11D8B40BD0200E9AEC14
:1010A00012F000016B07D8A06C076B516C11D8A42B
:1010B000F5D7030E69154B6E000E6A154C6E4B503A
:1010C0004C10D8B403D02D0E9AEC12F046C0F6FFA7
:1010D00047C0F7FF464A472A0800F5CF78F00001DD
:1010E0007851D8B4120054EF04F0306E30AED9D03D
:1010F000306C3050800A120FD8A079D0000E0A6EE2
:101100000A0E096E000E046E640E036E3050016EFE
:10111000026A01BE0206AEEC10F001C007F002C088
:1011200008F0F1EC0FF0090E07260750030D280E0A
:10113000F324F66E080EF420F76E0900F5CF1EF0CA
:101140000900F5CF1FF00A00F5CF20F0000E0A6E5F
:10115000640E096E3050076E086A07BE0806F1EC8F
:101160000FF0120E07260750030D280EF324F66E1B
:10117000080EF420F76E0900F5CF1BF00900F5CF3B
:101180001CF00A00F5CF1DF0FEEC0DF01BC02DF099
:101190001CC02EF01DC02FF02DC01BF02EC01CF067
:1011A0002FC01DF0000E046E0A0E036E3050016E4B
:1011B000026A01BE0206AEEC10F00150030D280ECB
:1011C000F324F66E080EF420F76E0900F5CF1EF03A
:1011D0000900F5CF1FF00A00F5CF20F0FEEC0DF06E
:1011E0001BC02AF01CC02BF01DC02CF01200305088
:1011F000800A750FD8A043D0000E0A6E0A0E096E41
:101200003050076E086A07BE0806F1EC0FF0090EB1
:1012100007260750030D280EF324F66E080EF4205F
:10122000F76E0900F5CF1BF00900F5CF1CF00A009E
:10123000F5CF1DF0000E046E0A0E036E3050016EE5
:10124000026A01BE0206AEEC10F00150030D280E3A
:10125000F324F66E080EF420F76E0900F5CF1EF0A9
:101260000900F5CF1FF00A00F5CF20F0FEEC0DF0DD
:101270001BC02AF01CC02BF01DC02CF012003050F7
:10128000030D280EF324F66E080EF420F76E090005
:10129000F5CF2AF00900F5CF2BF00A00F5CF2CF09E
:1012A00012003050800A120FD8A079D0000E0A6EBA
:1012B0000A0E096E000E046E640E036E3050016E4D
:1012C000026A01BE0206AEEC10F001C007F002C0D7
:1012D00008F0F1EC0FF0090E07260750030D010E80
:1012E000F324F66E080EF420F76E0900F5CF1EF019
:1012F0000900F5CF1FF00A00F5CF20F0000E0A6EAE
:10130000640E096E3050076E086A07BE0806F1ECDD
:101310000FF0120E07260750030D010EF324F66E90
:10132000080EF420F76E0900F5CF1BF00900F5CF89
:101330001CF00A00F5CF1DF0FEEC0DF01BC02DF0E7
:101340001CC02EF01DC02FF02DC01BF02EC01CF0B5
:101350002FC01DF0000E046E0A0E036E3050016E99
:10136000026A01BE0206AEEC10F00150030D010E40
:10137000F324F66E080EF420F76E0900F5CF1EF088
:101380000900F5CF1FF00A00F5CF20F0FEEC0DF0BC
:101390001BC02AF01CC02BF01DC02CF012003050D6
:1013A000800A750FD8A043D0000E0A6E0A0E096E8F
:1013B0003050076E086A07BE0806F1EC0FF0090E00
:1013C00007260750030D010EF324F66E080EF420D5
:1013D000F76E0900F5CF1BF00900F5CF1CF00A00ED
:1013E000F5CF1DF0000E046E0A0E036E3050016E34
:1013F000026A01BE0206AEEC10F00150030D010EB0
:10140000F324F66E080EF420F76E0900F5CF1EF0F7
:101410000900F5CF1FF00A00F5CF20F0FEEC0DF02B
:101420001BC02AF01CC02BF01DC02CF01200305045
:10143000030D010EF324F66E080EF420F76E09007A
:10144000F5CF2AF00900F5CF2BF00A00F5CF2CF0EC
:101450001200336E6D0E3364A3D0000E106E030EB7
:101460000F6E000E096E0A0E086E000E046E640EFA
:10147000036E33C001F0026AD0EC11F001C006F037
:1014800002C007F07EEC11F006C00DF007C00EF0B0
:1014900031EC12F01B0E0D26000E0E22280E0D242C
:1014A000F66E080E0E20F76E0900F5CF1EF009004B
:1014B000F5CF1FF00A00F5CF20F0000E096E640E84
:1014C000086E33C006F0076A7EEC11F006C00DF01E
:1014D00007C00EF0000E106E030E0F6E31EC12F00E
:1014E000360E0D26000E0E22280E0D24F66E080E66
:1014F0000E20F76E0900F5CF1BF00900F5CF1CF0A8
:101500000A00F5CF1DF0FEEC0DF01BC030F01CC042
:1015100031F01DC032F0000E106E030E0F6E000E83
:10152000046E0A0E036E33C001F0026AD0EC11F0B3
:1015300001C00DF002C00EF031EC12F0280E0D24A7
:10154000F66E080E0E20F76E0900F5CF1EF00900AA
:10155000F5CF1FF00A00F5CF20F030C01BF031C0EE
:101560001CF032C01DF0FEEC0DF01BC02DF01CC0B5
:101570002EF01DC02FF02DC01BF02EC01CF02FC070
:101580001DF0000E1E6E000E1F6E3F0E206EFEEC54
:101590000DF01BC02AF01CC02BF01DC02CF0120057
:1015A0000A0E336465D0000E106E030E0F6E000E2F
:1015B000046E0A0E036E33C001F0026AD0EC11F023
:1015C00001C00DF002C00EF031EC12F0280E0D2417
:1015D000F66E080E0E20F76E0900F5CF1EF009001A
:1015E000F5CF1FF00A00F5CF20F0000E096E0A0EAD
:1015F000086E33C006F0076A7EEC11F006C00DF0ED
:1016000007C00EF0000E106E030E0F6E31EC12F0DC
:101610001B0E0D26000E0E22280E0D24F66E080E4F
:101620000E20F76E0900F5CF1BF00900F5CF1CF076
:101630000A00F5CF1DF0FEEC0DF01BC030F01CC011
:1016400031F01DC032F030C01BF031C01CF032C090
:101650001DF0000E1E6E000E1F6E3F0E206EFEEC83
:101660000DF01BC02AF01CC02BF01DC02CF0120086
:101670003350030D280EF324F66E080EF420F76E97
:101680000900F5CF1BF00900F5CF1CF00A00F5CFDB
:101690001DF0000E1E6E000E1F6E3F0E206EFEEC43
:1016A0000DF01BC02AF01CC02BF01DC02CF0120046
:1016B0008B942F0E2E6EC00EE82EFED72E2EFCD74A
:1016C0008B841A0EE82EFED700D0948482A404D016
:1016D00094948284000E1200350EE82EFED700F09E
:1016E00082A4F6D7350EE82EFED700F0000E3B6E32
:1016F000000E326E000E3A6E82A4FED7170EE82E50
:10170000FED700F082A40DD03A5007082E6E010ECD
:101710002F6E2E2A02D0D8902F362E2EFCD72F5087
:10172000321282B4FED73A2A070E3A64E5D7330E56
:101730003B24D96EDA6A000EDA2232C0DFFF3B2A80
:10174000040E3B64D5D794948284345035243624D7
:1017500033243718D8A4BED7345033C02EF02F6AA4
:101760002EC02FF02E6A2E10306E2F50316E365054
:1017700035C02EF02F6A2EC02FF02E6A2E10386E34
:101780002F50396E39AE2FD0000E0F6E200E106E16
:10179000410E116EFF0E3814096E7F0E39140A6E59
:1017A00056EC12F009C00CF00AC00DF00BC00EF0A0
:1017B00078EC0EF00CC01BF00DC01CF00EC01DF03C
:1017C000000E1E6E800E1F6EBF0E206EFEEC0DF022
:1017D0002AC0D9FF2BC0DAFF1BC0DEFF1CC0DEFF12
:1017E0001DC0DEFF1ED038C009F039C00AF056EC2B
:1017F00012F009C00CF00AC00DF00BC00EF0000E84
:101800000F6E200E106E410E116E78EC0EF02AC095
:10181000D9FF2BC0DAFF0CC0DEFF0DC0DEFF0EC00B
:10182000DEFF30C009F031C00AF056EC12F009C0FA
:101830000CF00AC00DF00BC00EF0000E0F6E200E63
:10184000106E410E116E78EC0EF02CC0D9FF2DC039
:10185000DAFF0CC0DEFF0DC0DEFF0EC0DEFF010EA2
:10186000120036C03AF03B6A3C6A35343A3601E33E
:101870003B803A503F6E39C03AF03B6A3C6A38349C
:101880003A3601E33B803A503E6E3F50D8B40AD01E
:101890003E503F5CD8B00DD03F503E5C3A6E180EC3
:1018A0003A6407D037C034F038C035F039C036F06C
:1018B00012003E50D8B40AD03F503E5CD8B00DD094
:1018C0003E503F5C3A6E180E3A6407D034C034F094
:1018D00035C035F036C036F01200060E3D6E36BE0D
:1018E0003D8E39BE3D8C358EFF0E3416FF0E3516FB
:1018F000000E3616388EFF0E3716FF0E3816000E05
:1019000039163E503F5CD8B01BD0D89037363836A9
:1019100039363E063F503E18D8B40DD03D063DC086
:101920003AF0070E3A16D8B406D0EFD7D890363230
:10193000353234323F2A3E503F18D8B41FD0F6D744
:101940003F503E5CD8B01AD0D89034363536363653
:101950003F063F503E18D8B40DD03D063DC03AF08A
:10196000070E3A16D8B406D0EFD7D89039323832AD
:1019700037323E2A3E503F18D8A4F7D73DAE0CD0A0
:10198000FF0E341AFF0E351AFF0E361A010E3426DA
:10199000000E3522000E36223DAC0CD0FF0E371A59
:1019A000FF0E381AFF0E391A010E3726000E3822A4
:1019B000000E3922000E3D6E345037263550382245
:1019C0003650392239AE0ED0FF0E371AFF0E381AB4
:1019D000FF0E391A010E3726000E3822000E39226A
:1019E000010E3D6E37C001F038C002F039C003F07F
:1019F0003FC004F03DC005F054EC0FF001C034F0DE
:101A000002C035F003C036F0120003C007F0086AC8
:101A1000096A0234073601E3088007500F6E0F5041
:101A2000D8A409D0000E016E000E026E000E036EE7
:101A3000000E046E120006C007F0086A096A053439
:101A4000073601E3088007500E6E0E50D8B4EAD76F
:101A5000028EFF0E0116FF0E0216000E0316058EF3
:101A6000FF0E0416FF0E0516000E0616000E0A6E77
:101A7000000E0B6E000E0C6E000E0D6E7F0E0F5ED4
:101A80000E50980F0F5E180E0E6ED8900A360B3659
:101A90000C360D360450015C0550025806500358B0
:101AA000D8A007D00450015E0550025A0650035AD0
:101AB0000A80D8900136023603360E2EE6D70FAED6
:101AC0000DD00F50800A970FD8A0ACD7D8900D3208
:101AD0000C320B320A320F3EF9D70DD0170E0F64BD
:101AE00007D0A0D7D8900A360B360C360D360F0625
:101AF0000F50D8A4F7D70AC001F00BC002F00CC0F9
:101B000003F00DC004F01200033404340C6E0C50CA
:101B1000D8A409D0000E016E000E026E000E036EF6
:101B2000000E046E1200063407340B6E0B50D8B44E
:101B3000F1D7038EFF0E0116FF0E0216FF0E0316DD
:101B4000000E0416068EFF0E0416FF0E0516FF0E7D
:101B50000616000E0716000E076E000E086E000E29
:101B6000096E000E0A6E7F0E0C5E0B50A00F0C5E0D
:101B7000200E0B6ED8900736083609360A36045008
:101B8000015C055002580650035807500458D8A06D
:101B900009D00450015E0550025A0650035A0750FE
:101BA000045A0780D89001360236033604360B2ECD
:101BB000E1D70CAE0DD00C50800A9F0FD8A0AAD749
:101BC000D8900A320932083207320C3EF9D70DD0CC
:101BD0001F0E0C6407D09ED7D890073608360936FA
:101BE0000A360C060C50D8A4F7D707C001F008C07D
:101BF00002F009C003F00AC004F012001DC021F079
:101C0000226A236A1C34213601E322802150246E8B
:101C10002450D8A407D0000E1B6E000E1C6E000EC0
:101C20001D6E120020C021F0226A236A1F34213663
:101C300001E322802150296E2950D8A407D0000E3C
:101C40001B6E000E1C6E000E1D6E120029507B0FC5
:101C500024261DC029F02050291A800E29161C8E1A
:101C60001F8EFF0E1E16FF0E1F16000E2016000EF2
:101C7000256E000E266E000E276E070E286E1BA026
:101C800006D01E5025261F50262220502722D890ED
:101C90001D321C321B32D8901E361F362036282E9D
:101CA000EED7090E286E1BA006D01E5025261F5009
:101CB000262220502722D8901D321C321B32D89069
:101CC000273226322532282EEED725C001F026C035
:101CD00002F027C003F024C004F029C005F054EC42
:101CE0000FF001C01BF002C01CF003C01DF0120079
:101CF0000EC012F0136A146A0D34123601E3138019
:101D00001250196E1950D8A407D0000E0C6E000E98
:101D10000D6E000E0E6E120011C012F0136A146ADE
:101D20001034123601E3138012501A6E1A50D8A4E0
:101D300007D0000E0C6E000E0D6E000E0E6E12001F
:101D4000000E166E000E176E000E186E1A50890FD8
:101D5000195E0EC01AF011501A1A800E1A160D8E46
:101D6000FF0E0C16FF0E0D16000E0E16108EFF0E37
:101D70000F16FF0E1016000E1116180E156ED890C5
:101D80001636173618360F500C5C10500D5811507F
:101D90000E58D8A007D00F500C5E10500D5A11509D
:101DA0000E5A1680D8900C360D360E36152EE7D703
:101DB00016C001F017C002F018C003F019C004F0FB
:101DC0001AC005F054EC0FF001C00CF002C00DF089
:101DD00003C00EF0120033C035F0366A376A323471
:101DE000353601E3368035503F6E3F50D8A409D0D8
:101DF000000E316E000E326E000E336E000E346E29
:101E00001200170E356E31C036F032C037F033C0D5
:101E100038F03528396E04D0D8903832373236321F
:101E2000392EFAD736503A6E328EFF0E3116FF0E2B
:101E30003216000E331631503B6E32503C6E33502A
:101E40003D6E3E6A8E0E3F5E3FAE0DD03F50800A23
:101E50008F0FD8A0CDD7D8903E323D323C323B32A6
:101E60003F3EF9D70DD0170E3F6407D0C1D7D890A9
:101E70003B363C363D363E363F063F50D8A4F7D77A
:101E80003A50D8B408D03E1E3D1E3C1E3B6C000E9E
:101E90003C223D223E223BC031F03CC032F03DC0EE
:101EA00033F03EC034F012000450D8B405D00150D5
:101EB00002100310D8A40CD0000E016E000E026EAA
:101EC000000E036E1200042AD8900332023201324F
:101ED000000E0114066E000E0214076EFE0E0314AF
:101EE000086E065007100810D8B40CD0ECD7042A9E
:101EF000010E0126000E0222000E0322D8900332AA
:101F000002320132000E0114066E000E0214076E3A
:101F1000FF0E0314086E065007100810D8B406D040
:101F2000E6D70406D89001360236033602BE03D047
:101F3000020E0460F6D704A0029ED890043204502A
:101F400003120550D8A4038E01C001F002C002F0B4
:101F500003C003F01200720ED36EA3EC12F011EC6A
:101F600012F0570E2A6E000E2B6E540E2C6E000EC1
:101F70002D6E58EC0BF0536E5304D8A41DD077ECA3
:101F800012F0850E466E080E476E57C048F058C0D6
:101F900049F059C04AF04DEC04F09FEC12F0770E76
:101FA000466E080E476E54C048F055C049F056C002
:101FB0004AF04DEC04F008D077EC12F0930E036E6B
:101FC000080E046EA7EC11F0150E526E4B0E516EFA
:101FD000BE0EE82EFED7512EFCD7522EFAD700D0D7
:101FE000C0D7000E0C6E0AAE06D0096C0A1ED8B01F
:101FF0000A2A010E0C6E08AE06D0076C081ED8B077
:10200000082A010E0C1A000E0E6E000E0D6E0950FD
:102010000A10D8B41CD0010E0B6E04D0D89009362B
:102020000A360B2A0AAEFAD7D8900D360E3609506A
:10203000075C0A500858D8A005D00950075E0A501E
:10204000085A0D80D8900A3209320B2EEDD70C5069
:10205000D8B404D00D6C0E1ED8B00E2A0DC007F0F7
:102060000EC008F01200000E096E000E0A6E000E7F
:102070000B6E000E0C6E0550061007100810D8B439
:102080002AD0010E0D6E06D0D890053606360736DA
:1020900008360D2A08AEF8D7D89009360A360B361E
:1020A0000C360550015C0650025807500358085082
:1020B0000458D8A009D00550015E0650025A0750B6
:1020C000035A0850045A0980D89008320732063261
:1020D00005320D2EE1D709C001F00AC002F00BC095
:1020E00003F00CC004F0120003AE0FD0000E076E18
:1020F000000E086E800E096E0150075C016E0250E2
:102100000858026E03500958036E06AE0FD0000E39
:10211000076E000E086E800E096E0450075C046E98
:1021200005500858056E06500958066E000E011A33
:10213000000E021A800E031A000E041A000E051A71
:10214000800E061A0450015C0550025806500358D0
:10215000D8B002D0D8901200D8801200000E066EBF
:1021600002AE06D0016C021ED8B0022A010E066E25
:1021700004AE04D0036C041ED8B0042A035004102B
:10218000D8B418D0010E056E04D0D89003360436AA
:10219000052A04AEFAD70350015C04500258D8A0B7
:1021A00004D00350015E0450025AD8900432033226
:1021B000052EF1D70650D8B404D0016C021ED8B059
:1021C000022A01C001F002C002F01200016E01A853
:1021D00002D08C8801D08C9801AA02D08C8A01D0C0
:1021E0008C9A01AC02D08C8C01D08C9C01AE02D0B8
:1021F0008C8E01D08C9E8C8400F08C940138F00B76
:10220000016E01A802D08C8801D08C9801AA02D05E
:102210008C8A01D08C9A01AC02D08C8C01D08C9C21
:1022200001AE02D08C8E01D08C9E8C8400F08C94F8
:10223000210EE82EFED700F0120005500610071000
:102240000810D8B424D0010E096E06D0D8900536F7
:10225000063607360836092A08AEF8D70550015C5D
:10226000065002580750035808500458D8A008D008
:102270000550015E0650025A0750035A0850045A8E
:10228000D8900832073206320532092EE7D701C04E
:1022900001F002C002F003C003F004C004F0120019
:1022A0008E0E116E06D0D8900C320B320A320932E3
:1022B000112A000E09140D6E000E0A140E6E000E87
:1022C0000B140F6EFF0E0C14106E0D500E100F102D
:1022D0001010D8A4E8D709C001F00AC002F00BC062
:1022E00003F011C004F0000E056E54EC0FF001C0B5
:1022F00009F002C00AF003C00BF01200000E0B6ED2
:10230000000E0A6E08500910D8B41CD0010E0C6ED5
:1023100004D0D890083609360C2A09AEFAD7D890DE
:102320000A360B360850065C09500758D8A005D06D
:102330000850065E0950075A0A80D89009320832C0
:102340000C2EEDD70AC006F00BC007F0120014D017
:1023500003C0F6FF04C0F7FFF86A070EF76403D066
:102360000800F55005D0F6CFE9FFF7CFEAFFEF50B0
:102370008EEC12F0034A042A03C0F6FF04C0F7FFF4
:10238000F86A070EF76403D00800F55005D0F6CFC1
:10239000E9FFF7CFEAFFEF500009D8B41200D8D711
:1023A00003500410D8B418D0010E056E04D0D89094
:1023B00003360436052A04AEFAD70350015C0450F4
:1023C0000258D8A004D00350015E0450025AD8909D
:1023D00004320332052EF1D701C001F002C002F031
:1023E0001200435044104510D8B406D0000E431AD2
:1023F000000E441A800E451A40C034F041C035F03A
:1024000042C036F043C037F044C038F045C039F020
:1024100031EC0CF034C040F035C041F036C042F031
:1024200012009598959A959C959E959695948C9664
:102430008C948C988C9A8C9C8C9E820E036EDE0EF3
:10244000E82EFED7032EFCD7020E94EC12F0280ED5
:1024500094EC12F00C0E94EC12F0060E94EC12F0C8
:1024600012000D500F02F3CF11F0F4CF12F00D5007
:102470001002F35012260E500F02F350122611C014
:102480000DF012C00EF01200015002100310D8B46B
:1024900006D0000E011A000E021A800E031A01C0A7
:1024A00001F002C002F003C003F0120009C001F005
:1024B0000AC002F0036A8E0E046E000E056E54EC24
:1024C0000FF001C009F002C00AF003C00BF01200C7
:1024D000036E000E026E3A0E036005D02F0E0364E9
:1024E00002D0010E026E02C001F001301200010E96
:1024F00094EC12F0060E036E300EE82EFED7032E7B
:10250000FCD700D0120000EE79F0080EEE6AE80663
:10251000FDE1000EF86E0001ABEF0FF0026E8C864D
:102520000250E6EC10F01200026E8C960250E6ECBF
:1025300010F01200036E03508EEC12F01200C00E69
:0C25400094EC12F0120094948B841200B2
:020000040020DA
:08000000FFFFFFFFFFFFFFFF00
:020000040030CA
:0E0000000008191EFF0381FF0FC00FE00F4024
:00000001FF
